:020000040000fa
:080000000002040000000000f2
:020000040000fa
:0400080044040000ac
:020000040000fa
:04000c008604000066
:020000040000fa
:04001000e604000002
:020000040000fa
:040014006404000080
:020000040000fa
:04001800a60400003a
:020000040000fa
:04001c00c604000016
:020000040000fa
:0400200006050000d1
:020000040000fa
:040024004c06000086
:020000040000fa
:040028004c06000082
:020000040000fa
:04002c004c0600007e
:020000040000fa
:040030004c0600007a
:020000040000fa
:040034000e040000b6
:020000040000fa
:040038004c06000072
:020000040000fa
:04003c004c0600006e
:020000040000fa
:040040004c0600006a
:020000040000fa
:040044004c06000066
:020000040000fa
:04004800320500007d
:020000040000fa
:04004c004c0600005e
:020000040000fa
:040050004c0600005a
:020000040000fa
:04005400ca050000d9
:020000040000fa
:040058006805000037
:020000040000fa
:04005c004c0600004e
:020000040000fa
:040060004c0600004a
:020000040000fa
:040064004c06000046
:020000040000fa
:040068004c06000042
:020000040000fa
:04006c004c0600003e
:020000040000fa
:040070004c0600003a
:020000040000fa
:040074004c06000036
:020000040000fa
:040078004c06000032
:020000040000fa
:04007c004c0600002e
:020000040000fa
:040080004c0600002a
:020000040000fa
:040084004c06000026
:020000040000fa
:040088004c06000022
:020000040000fa
:04008c004c0600001e
:020000040000fa
:040090004c0600001a
:020000040000fa
:040094004c06000016
:020000040000fa
:040098004c06000012
:020000040000fa
:04009c004c0600000e
:020000040000fa
:0400a0004c0600000a
:020000040000fa
:0400a4004c06000006
:020000040000fa
:0400a8004c06000002
:020000040000fa
:0400ac004c060000fe
:020000040000fa
:0400b0004c060000fa
:020000040000fa
:0400b4004c060000f6
:020000040000fa
:0400b8004c060000f2
:020000040000fa
:0400bc004c060000ee
:020000040000fa
:0400c0004c060000ea
:020000040000fa
:0400c4004c060000e6
:020000040000fa
:0400c8004c060000e2
:020000040000fa
:0400cc004c060000de
:020000040000fa
:0400d0004c060000da
:020000040000fa
:0400d4004c060000d6
:020000040000fa
:0400d8004c060000d2
:020000040000fa
:0400dc004c060000ce
:020000040000fa
:0400e0004c060000ca
:020000040000fa
:0400e4004c060000c6
:020000040000fa
:0400e8004c060000c2
:020000040000fa
:0400ec004c060000be
:020000040000fa
:0400f0004c060000ba
:020000040000fa
:0400f4004c060000b6
:020000040000fa
:0400f8004c060000b2
:020000040000fa
:0400fc004c060000ae
:020000040000fa
:040100004c060000a9
:020000040000fa
:040104004c060000a5
:020000040000fa
:040108004c060000a1
:020000040000fa
:04010c004c0600009d
:020000040000fa
:040110004c06000099
:020000040000fa
:040114004c06000095
:020000040000fa
:040118004c06000091
:020000040000fa
:04011c004c0600008d
:020000040000fa
:040120004c06000089
:020000040000fa
:040124004c06000085
:020000040000fa
:040128004c06000081
:020000040000fa
:04012c003606000093
:020000040000fa
:040130004c06000079
:020000040000fa
:040134004c06000075
:020000040000fa
:040138004c06000071
:020000040000fa
:04013c004c0600006d
:020000040000fa
:040140004c06000069
:020000040000fa
:040144004c06000065
:020000040000fa
:040148004c06000061
:020000040000fa
:04014c004c0600005d
:020000040000fa
:040150004c06000059
:020000040000fa
:040154004c06000055
:020000040000fa
:040158004c06000051
:020000040000fa
:04015c004c0600004d
:020000040000fa
:040160004c06000049
:020000040000fa
:040164004c06000045
:020000040000fa
:040168004c06000041
:020000040000fa
:04016c004c0600003d
:020000040000fa
:040170004c06000039
:020000040000fa
:040174004c06000035
:020000040000fa
:040178004c06000031
:020000040000fa
:04017c004c0600002d
:020000040000fa
:040180004c06000029
:020000040000fa
:040184004c06000025
:020000040000fa
:040188004c06000021
:020000040000fa
:04018c004c0600001d
:020000040000fa
:040190004c06000019
:020000040000fa
:040194004c06000015
:020000040000fa
:040198004c06000011
:020000040000fa
:04019c004c0600000d
:020000040000fa
:0401a0004c06000009
:020000040000fa
:0401a4004c06000005
:020000040000fa
:0401a8004c06000001
:020000040000fa
:0401ac004c060000fd
:020000040000fa
:0401b0004c060000f9
:020000040000fa
:0401b4004c060000f5
:020000040000fa
:0401b8004c060000f1
:020000040000fa
:0401bc004c060000ed
:020000040000fa
:0401c0004c060000e9
:020000040000fa
:0401c4004c060000e5
:020000040000fa
:0401c8004c060000e1
:020000040000fa
:0401cc004c060000dd
:020000040000fa
:0401d0004c060000d9
:020000040000fa
:0401d4004c060000d5
:020000040000fa
:0401d8004c060000d1
:020000040000fa
:0401dc004c060000cd
:020000040000fa
:0401e0004c060000c9
:020000040000fa
:0401e4004c060000c5
:020000040000fa
:0401e8004c060000c1
:020000040000fa
:0401ec004c060000bd
:020000040000fa
:0401f0004c060000b9
:020000040000fa
:0401f4004c060000b5
:020000040000fa
:0401f8004c060000b1
:020000040000fa
:0401fc004c060000ad
:020000040000fa
:040200004c060000a8
:020000040000fa
:040204004c060000a4
:020000040000fa
:040208004c060000a0
:020000040000fa
:04020c004c0600009c
:020000040000fa
:040210004c06000098
:020000040000fa
:040214004c06000094
:020000040000fa
:040218004c06000090
:020000040000fa
:04021c004c0600008c
:020000040000fa
:040220004c06000088
:020000040000fa
:040224004c06000084
:020000040000fa
:040228004c06000080
:020000040000fa
:04022c004c0600007c
:020000040000fa
:040230004c06000078
:020000040000fa
:040234004c06000074
:020000040000fa
:040238004c06000070
:020000040000fa
:04023c004c0600006c
:020000040000fa
:040240004c06000068
:020000040000fa
:040244004c06000064
:020000040000fa
:040248004c06000060
:020000040000fa
:04024c004c0600005c
:020000040000fa
:040250004c06000058
:020000040000fa
:040254004c06000054
:020000040000fa
:040258004c06000050
:020000040000fa
:04025c004c0600004c
:020000040000fa
:040260004c06000048
:020000040000fa
:040264004c06000044
:020000040000fa
:040268004c06000040
:020000040000fa
:04026c004c0600003c
:020000040000fa
:040270004c06000038
:020000040000fa
:040274004c06000034
:020000040000fa
:040278004c06000030
:020000040000fa
:04027c004c0600002c
:020000040000fa
:040280004c06000028
:020000040000fa
:100400008f9622000eff27000e01880000000000da
:10041000000020000000e000020032000001200087
:100420002002880014000700420207000000e000dc
:1004300003003a00005529000100200002003700a7
:100440000000200001002000810f70000100320038
:100450000f000700000020000000e0000200320052
:100460000000020000000000169a020000000000d8
:100470000040da000000fe0040a723000000e0007a
:1004800002003200002020009001880000000600d9
:10049000a1028800800478000000eb001f003700f4
:1004a000e284440054a0b4009905ba00e2844400f8
:1004b00054a0b4009906ba00e284440054a0b400e9
:1004c0000006eb00476fde00fd07b200ae018800ba
:1004d000636ce10003003a000ad801000000eb0061
:1004e0000e003700606ce10008003a00004deb00a0
:1004f0000a05e800020039003420ec000af0a000f0
:100500008b05e900f9ff3e00040037006168e10057
:10051000010032000086eb000b00070019c7ba008b
:100520000e04e0001905ba0003003a000a00e000da
:10053000dbff3a0000000600fe07b200ae028800b2
:100540008a047800f5ff37000cd0a300e20f4d00bd
:100550001c003b0089027800354dba000a05e8000e
:10056000020039003420ec000af0a0008b05e900fd
:100570000f003200254dba000a05e80002003900dc
:100580003420ec000af0a0008b05e90008003200de
:100590000c00e0000600320015cdba000a05e800a4
:1005a000020039003420ec000af0a0008b05e900bd
:1005b0008984e80054a0b4000b00e000e2ff3a0098
:1005c000000006009902ba00055d78008b05e9007d
:1005d000f7ff3200c82ade00055d78008b05e900d0
:1005e000f3ff32000c00e000f1ff320019ddba0029
:1005f000eeff37002e9c040000000000f29904007a
:10060000000000003e980400000000005e9a040014
:1006100000000000689a040000000000729a0400c4
:10062000000000007c9a040000000000869a04008c
:1006300000000000909a0400000000000e940400e6
:1006400000000000328e040000000000508e040004
:100650000000000016830400000000006286040011
:1006600000000000ac85040000000000de7f0400f4
:1006700000000000786d040000000000ba6d040066
:10068000000000007a77040000000000f876040003
:10069000000000003072040000000000a473040099
:1006a00000000000b0740400000000006871040045
:1006b000000000009a70040000000000428704005f
:1006c000000000001a870400000000008e8d040066
:1006d000000000009e8d040000000000d68d040084
:1006e000000000009a9d040000000000a49d04008a
:1006f00000000000ac9d040000000000b49d040058
:1007000000000000f69d040000000000089e0400a8
:10071000000000002a780400000000004078040077
:1007200000000000129e0400000000002278040077
:1007300000000000ac9c040000000000b69c040017
:1007400000000000ce9c040000000000e89c0400b3
:10075000000000004c9e040000000000569e0400b3
:1007600000000000609e040000000000f8900400fb
:100770000000000040910400000000004e910400c1
:1007800000000000a6910400000000004292040056
:1007900000000000f29c040000000000fc9c04002b
:1007a00000000000149d0400000000002e9d0400c5
:1007b000000000004a980400000000007a9804003d
:1007c000000000008898040000000000a8980400c1
:1007d00000000000cc980400000000003059040024
:1007e000000000005c58040000000000685c040089
:1007f00000000000725e0400000000008c6604002f
:10080000000000001019040000000000b4130400f0
:1008100000000000680f0400000000003600f8002f
:10082000809fbe00829fbe00849fbe00869fbe0048
:100830000000fa00e08080000000e00002003200ca
:10084000e080800000000100309622001040780017
:100850008040e8003096220001487800209622006f
:1008600011c0b300014878000068a9000080fa00b8
:100870004f03be004f02be004f01be004f00be003e
:100880003600f900004006003600f800809fbe00e8
:10089000829fbe00849fbe00869fbe000000fa00bb
:1008a000c028a9000000eb000e4d07000080fa00f0
:1008b0004f03be004f02be004f01be004f00be00fe
:1008c0003600f900004006003600f800809fbe00a8
:1008d000829fbe00849fbe00869fbe000000fa007b
:1008e000054d0700c048a90010002000fd4c07007e
:1008f0000080fa004f03be004f02be004f01be0051
:100900004f00be003600f900004006003600f80037
:10091000809fbe00829fbe00849fbe00869fbe0057
:100920000000fa00c068a90020002000ed4c07007c
:100930000080fa004f03be004f02be004f01be0010
:100940004f00be003600f900004006003600f800f7
:10095000809fbe00829fbe00849fbe00869fbe0017
:100960000000fa00c088a90030002000dd4c07001c
:100970000080fa004f03be004f02be004f01be00d0
:100980004f00be003600f900004006003600f800b7
:10099000809fbe00829fbe00849fbe00869fbe00d7
:1009a0000000fa00c0a8a90040002000cd4c0700bc
:1009b0000080fa004f03be004f02be004f01be0090
:1009c0004f00be003600f900004006003600f80077
:1009d000809fbe00829fbe00849fbe00869fbe0097
:1009e0000000fa00c608a90070002000bd4c0700f6
:1009f0000080fa004f03be004f02be004f01be0050
:100a00004f00be003600f900004006003600f80036
:100a1000809fbe00829fbe00849fbe00869fbe0056
:100a20000000fa00214680000002200000806000e3
:100a30000000e00003003200c4a8a90090002000dc
:100a4000a84c070020468000700060000000e00015
:100a500003003200c488a900a0002000a14c0700b8
:100a6000ffff37003600f800809fbe00829fbe0067
:100a7000849fbe00869fbe000000fa0010818000a7
:100a80000000e00002003200108180000000010040
:100a900050962200104078008040e80050962200d6
:100aa000014878004096220011c0b3000148780048
:100ab0000108a9000080fa004f03be004f02be00eb
:100ac0004f01be004f00be003600f9000040060096
:100ad0003600f800809fbe00829fbe00849fbe004b
:100ae000869fbe000000fa00508080000000e000f9
:100af0000200320050808000000001003180800040
:100b000020808000808f500002003a002188a900d8
:100b1000190037000188a9001000370030808000dc
:100b2000904078008180fb00211188000000e800df
:100b30003080880031808000d04a2200808f5000b1
:100b400002003a00e03a22003080880031808000c4
:100b500020808000808f500006003200111180003c
:100b600000202000008060000000e000ebff320069
:100b700001003700000000000080fa004f03be00b3
:100b80004f02be004f01be004f00be003600f9000c
:100b9000004006003600f800809fbe00829fbe0025
:100ba000849fbe00869fbe000000fa006080800027
:100bb0000000e000020032006080800000000100c0
:100bc0000168a9001e0037000080800031118000fc
:100bd000814078000148780001808000b05a2200ee
:100be000808f500009003200008080008000e80003
:100bf00010808000808f5000040032000080800050
:100c00000000e800008088000d00370001808000af
:100c1000b05a2200808f500007003a0011808000f7
:100c2000d04a2200808f500003003200d04a2200b8
:100c3000008088000200370010c0b30008f0b70041
:100c400010118000610060000000e000deff3a004b
:100c50000080fa004f03be004f02be004f01be00ed
:100c60004f00be003600f90000400600801f7800eb
:100c70000000fa0010118000620060000000e00037
:100c8000010032002222a9000828a9000080fa00f1
:100c90004f007800004006000040da000000fe002f
:100ca0000a00fa0011002000b1bf9f00c0bf9f00e2
:100cb0006a805700ba0a07004fb897000080fa0010
:100cc000000006000a00fa0020079800310798008b
:100cd00042079800be009000110798000000eb004a
:100ce000000f78000c0037000000000025440700ca
:100cf0000004a2000004e000fcff3a001e00900087
:100d0000104078009e0090008100e80011079800d4
:100d1000fc4307001e0fe8004e0090009e00780084
:100d2000808f5000f0ff39004e0090000080fa00e4
:100d300000000600000005008f1fd100df02070041
:100d40008f87e9000000e00000000600809feb00b4
:100d5000da0207008f87e9000000e00000000600cb
:100d600081037800720007000001be006000b80037
:100d70000478a30013003a006220e10015003e0051
:100d80000d0039008301d1000281d3008180d3009e
:100d90008301d1000281d3008180d3008301d1007f
:100da0000281d3008180d3000538b000c42add0061
:100db000f300b2008381720007f0a70003f0a000e7
:100dc0000000060083ff2700020020006110b90028
:100dd000f9ff370003ff2700f7ff3700140020005a
:100de00031033700f4ff2f002f0337000003be004c
:100df0004f0007006011b8000470a70007f0a100c1
:100e00006509b1001b003200120035008602200087
:100e10000628e10008003500f3ff2700f2ff2f004d
:100e20006110b9000700e00018003b000300280033
:100e30006000b8000200050000004000818048000a
:100e400002014900838149008502e900faff3a0066
:100e500008003700f88f420002003c008000eb00e1
:100e6000000005008100d1000080d3008502e80069
:100e7000fcff3a000700e00004003b0060001000a7
:100e8000e080180060011900e081190000000600f0
:100e90000001be00260007000470a70003f0a100b7
:100ea0006509b100160032000d0035006828e10028
:100eb00006003500f0ff2f00f1ff27000300e000df
:100ec00013003b0001002800000005000000400066
:100ed000818048008502e900fcff3a0008003700e5
:100ee000f88f420002003c008000eb00000005008b
:100ef0008100d1000080d3008502e800fcff3a00a9
:100f00000300e00002003b0060001000e0801800d9
:100f1000000006004f89de0082017800fd023700e4
:100f20006011b8000b0337006011b80034033700bc
:100f3000c70ade00f107b200f50fb2000800320068
:100f4000e1cf4200020032000170a0002400050041
:100f5000810f700001003200040805004400050004
:100f6000810f700002003a00140005008502e900bc
:100f70000000400081c04800fcff3b000170a00061
:100f8000240005001400fa00889fbe008a9fbe005e
:100f90008c9fbe000005be000206be006800470030
:100fa0000c90be000a90be007f0207006400e100c2
:100fb0001a00320016003e006100e1001a00320003
:100fc0006e049000fe0490000e0b90009e0b9000ab
:100fd0006011b8009e0590000b38b100d5012000cb
:100fe00082817100610164008703d1000683d30010
:100ff0008984d3000884d3008502e900f8ff3a0011
:101000002e0307000df0a70001f0a000a102370099
:1010100001fc270000002000faff370001f827003c
:1010200000002000f7ff37006000b800f5ff370030
:101030008c9fbe008a9fbe00889fbe00ca0007002a
:101040000b056d008a0578000c40e10008003a00ad
:101050000900e00082003a000af0a1000c047800c8
:10106000f3012000f2ff2f006110b9007c0037006f
:101070000c48e10004003a00870007000900e00086
:1010800077003a00f4ff37000800e00074003200f7
:101090000900e00002003a007f00070070003700fe
:1010a000ed3f20008d845400090444008a1f78001d
:1010b000881f7800871f7800861f7800851f7800ba
:1010c000841f7800cb19dd00c515de008b8571000b
:1010d0004b11dd00450dde000a057100cb08dd0077
:1010e000c504de00898470004b04dd000440b800b4
:1010f0000546b8008c80400060814e00044eb80068
:101100008c8040000d0149008001eb000318ad0008
:101110000456b8000c0141008d8149000002eb002b
:101120000420ad000646b8000c0141008d81490045
:1011300060024a00054eb8000c0141008d81490053
:1011400060024a000556b8008c8141000d024a0039
:101150008002eb000528ad000746b8008c814100f5
:101160000d024a00e0824a00064eb8008c81410020
:101170000d024a00e0824a004f0678000c5eb8007b
:101180008c8141000d024a00e0824a000656b800f8
:101190000c0242008d824a000003eb000630ad00d5
:1011a000074eb8000c0242008d824a0060034b00db
:1011b0004f0678000c5eb8000c0242008d824a0097
:1011c00060034b000756b8008c8242000d034b00b1
:1011d0008003eb000738ad004f0678000c5eb800c6
:1011e0008c8242000d034b00e0834b004f067800d9
:1011f0000c5eb8000c0343008d834b004f04780055
:101200004f0578000748a3000a003a00000040009c
:1012100081804800020149008381490004024a009c
:1012200085824a0006034b0087834b000804e900cf
:10123000f4ff370003067800808070008280700021
:10124000010032006106760087017800060178000f
:101250008500780004007800880478007800370062
:101260008d0037008c06460002003a000000a60000
:101270000000060060004800e0804800600149006e
:10128000e08149000350a600000006008301d10060
:101290000804e800000006000002fd008102fd00d5
:1012a0000203fd008303fd008804fd008a05fd00a4
:1012b000000006007048e1001a0039007d0320009c
:1012c0000d48e1000a0039008105700083067100b5
:1012d0008c8575008d8575000006eb001cd8e70035
:1012e000610676006000b8006011b80000000600da
:1012f0007048e1000b0039008c057800000678008a
:101300000100780082007800030178008001eb0082
:1013100013d8e70061067600f0845400f4ff3a0029
:10132000000006006160e1000c48ad00f08514008b
:101330008b06dd000966de000d0676008b0edd00f3
:101340000900de000d0070008b16dd008908de004c
:101350008d8070008b1edd000911de000d01710013
:101360008919de00000006000d002800fc7f200027
:101370000d856100441cde00ef8161000c046400f7
:10138000010032000340a0008d856300c43cde00f4
:10139000ef8363008c846400010032000740a000ea
:1013a0000c40e10006003a00ef866100828676007c
:1013b00081867600808676000100320018003700b2
:1013c0000c48e10007003a00ef866300868676004d
:1013d000858676008486760002003200aeff070024
:1013e0000f0037000348a30005003a008106700093
:1013f0008286760083867600010032000804e800c9
:101400000748a30005003a0085067200868676002c
:1014100087867600010032008904e800000006009b
:10142000cf047800cf0578001b0037000002780059
:101430008102780002037800830378008804780032
:101440000cf0a70087ff0700fd7f20000d40e100a2
:10145000040035000d0478006000b8006011b80089
:101460000d0037000800e0000b003c00040078008d
:10147000850078000601780087017800e184140077
:101480008cff07000cf0a70076ff07000004eb00bc
:101490000340a7000804e8004444dd006fc5610074
:1014a000880175004f04be004f05be004f06be0008
:1014b000000006000383680007002800070363009c
:1014c000470ade000480a100c71ade000580a100e3
:1014d000f70f20000720e100420032000728e1005a
:1014e00040003200889fbe008a9fbe008c1f78009b
:1014f000f107b200f307b2000400e000640032001c
:101500000170a0000500e000680032000370a00038
:1015100085054200eb07b1000204b8000302b800e1
:101520008484440060854a00020ab8008484440030
:101530000a854a00030ab800040545000400330088
:101540000804d0008984d2000a85d2008b05e90006
:101550006158e1003d0035000210200009016100e2
:101560000308200089816100f70720008783640059
:1015700008867300c84cde00c853dd008784740001
:101580004855de000300e0000600320082037600ca
:10159000040032008904e80060054d000a88a300b9
:1015a0000c003a00f70f20000758e10044003d000e
:1015b0000a70a100c75ddd000a8575008a0073000e
:1015c000090078004f0678004f05be004f04be00aa
:1015d000000006000a05d1008984d3008b05e800cd
:1015e000f0ff3700881f780006047800900007009d
:1015f000070278000001fd008101fd008c0007005a
:1016000087027800850372000778a3000500320086
:101610000001fd008101fd009f0007004f047800dc
:1016200000000600850372000748a3000300320093
:10163000f0ff2f00f1ff2700f8ff37000000200027
:1016400001f8270088807000f4ff370088017800d7
:101650004848dd00808171004848de00c850dd0048
:1016600001007000c850de00060478000b0178000d
:101670001600070088807000d2ff37000500e000e8
:1016800005003200170020003a0007009dff3700d8
:1016900081037000f9ff3a00860078004f06780059
:1016a0004f05be004f04be0000000500830371001b
:1016b000f9ff3200270020002e00070094ff3700ba
:1016c00001f8270086807000f4ff37000100e00079
:1016d00026003200610111007810e10023003c0077
:1016e0006022b8007010e10004003500800278002c
:1016f000010078008000eb00700151000200e00062
:101700000900340070031100062add00822ade0081
:101710008603dd00878272000200de00860bdd009a
:10172000070070008208de0084817100f4ff27004a
:1017300004826200848171000400280084826200b7
:101740006102600005f0a60000000600048271003e
:10175000070032000000e800e080480000000600ba
:101760000002be006000b800efff37006000b80064
:1017700000000600889fbe000004eb006138e10015
:1017800016003a000100e00008003a00c800de0040
:101790004800dd00880020000100e00003003a005e
:1017a000c800de004800dd00680444008184cf00ea
:1017b000e9845400060034008908dd00f083140039
:1017c0008703de00878070000900dd000904440003
:1017d000610214004f04be00000006000300e00098
:1017e00008003a00c811de004811dd008800200022
:1017f0000300e00003003a00c811de004811dd00dc
:10180000680444008384cf00e98454000600340057
:101810008919dd00f08314008713de0087817100d1
:101820000911dd0009044400e1021400e9ff37005a
:101830002700200001f0a70017002000470bde0062
:10184000f60fb200040032000643e8000a0032003e
:101850004702b3000000060001037800f607b2005b
:101860000603700002003a000703b3000000060000
:101870008702b3000000060001037800f607b200fb
:1018800006037000020032000770a000000006008e
:101890000760a000000006000478a30004003200e6
:1018a0000578a300030032000168a30001003a009c
:1018b0000200be000160a00000000600889fbe007c
:1018c0008a9fbe008c9fbe000404be000605be00b9
:1018d000809fbe00829fbe002100070004067800a2
:1018e0000800be000a01be001d0007008406780043
:1018f0004f03be004f02be008d4f76007fb09700b1
:1019000013003300f0ff2f008b8f6b0006003b00ad
:101910000d0666000c00a7000a00370007f0a600bd
:10192000100020000a003700880f5200898f5a00eb
:101930008a0f5b008b8f5b000300390010002000d2
:1019400001003e000000200007f0a7000000ea00b0
:101950004f06be004f05be004f04be00000006004b
:1019600005ff270005826100070032000428e1001e
:1019700001003200240005000600070001003a00c3
:10198000440005000408050002000700f9ff3a00c2
:10199000140005006f8261008102700085027100f1
:1019a00085027200000006005002be00e4005000f4
:1019b0005003be004439de00f700b200f37f200080
:1019c00003016100090032000218e10016003a002c
:1019d0008501720083017300838173000008200079
:1019e00015003a0040002000130037008501720006
:1019f000830173008381730005003a0004a8be00d0
:101a000006a8be00100020000b0037000201e9000c
:101a10000402420085824a0006034b0087834b0084
:101a20000748a300f9ff32000740a00004a8be0049
:101a300006a8be00200020008000980092009800b8
:101a400000000600680447000294be000094be0037
:101a5000fc0447008694be008494be000900780010
:101a6000d1ff070008007800cfff07009900780039
:101a7000814f70000b003b000800be00e90007002a
:101a80004f00b10003003700f3ff2700f2ff2f00e3
:101a90006110b9004f06be004f05be004f04be00e6
:101aa0000080fa0000000600889fbe008a9fbe00ea
:101ab000841f7800a70007004f0078001100330052
:101ac000f0ff2f00838f6c0006003b0004056500cb
:101ad0000a00a7000800370009f0a6001000200047
:101ae00008003700820f5400838f5c000300390028
:101af0001000200001003e000000200009f0a700b7
:101b00000000ea004f05be004f04be000000e000e8
:101b100000000600881f7800030478000300e0003e
:101b200007003d0060001000e0801800600119000f
:101b3000e081190002003b0001f02d000300370096
:101b40002f00070008f0a70001f0a0004f04780064
:101b500000000600889fbe00008270000402710031
:101b6000048271002400320036432000c5002000aa
:101b70008383cf000a0039000541b1008283cf0082
:101b8000070039000541b1008183cf00040039000e
:101b90000541b1008083cf00010039000541b1004b
:101ba00085c353006022b800120032000a003b00d7
:101bb00084827200610260008301d1000281d3003f
:101bc0008180d3000080d3000603e8008743e8004b
:101bd000f7ff3a000700370000004000818048000e
:101be00002014900838149000603e9008743e900b7
:101bf000f9ff3a005f0007004f04be000000060036
:101c0000889fbe008a9fbe0000827000040271009f
:101c100004827100260032000004be000200be00f3
:101c20006011b8006b092000950220000182cf00ee
:101c30000a0039000541b1000082cf0007003900d9
:101c40000541b1000982cf00040039000541b1000f
:101c50000882cf00010039000541b1000542520061
:101c6000120032000a003b008281710061016400b1
:101c70008100d1000080d3008984d3000884d30080
:101c80008b05e8000442e800f7ff3a000700370040
:101c90000804440089844c0000004800818048000a
:101ca0008b05e9000442e900f9ff3a000300070050
:101cb0004f05be004f04be0000000600810020005a
:101cc000618055000b003d000b00200061fe2f00dd
:101cd0000100e1001d003400828171006101640097
:101ce0008904d1000884d3000000e800faff3a001c
:101cf00071002000610064000300700002006000b9
:101d00000900320061044400e0844c000988a50009
:101d1000050032008b05e8006808e10002003a0087
:101d20008904d1000884d300f20f20000258e1009a
:101d300005003d00c75ddd00f907b2008980750030
:101d400008007800000006000bf827008b007800e0
:101d5000000005000004be0075fc07000003be0083
:101d60000405be000200be0071fc0700844f750030
:101d7000000006001800200057002000080453004f
:101d80000d003d000600200097fc2f000740e100f9
:101d90001e00340084827200610260008301d10061
:101da0000281d3008180d3000080d3000804e800c2
:101db000f8ff3a0047002000610460000504740049
:101dc000040464000d00320061004000e08048001f
:101dd00060014900e081490003b8a5000700320016
:101de0000603e8006538e10004003a008301d100f1
:101df0000281d3008180d3000080d300f87f2000cf
:101e00000830e10003003500080378006000b800e6
:101e10006011b8004433dd00f300b20083017300a9
:101e200000000600e48240001078a30007003200a2
:101e3000640240001178a3003400be001401be000b
:101e4000050032000330a7000000060035007800ce
:101e5000b50078001501be000330a00000000600a8
:101e60000000fa0068815700cfb8970060458100f4
:101e7000100078001b0207000080fa000000060036
:101e80002c000700870007003c01070066010700df
:101e9000bd000700960207003d0237006145810042
:101ea000910078003a050700110020000000e000d2
:101eb000050035006045810090007800a0002000fa
:101ec000e7050700cf00de000100ea000000060081
:101ed00000000600208b220000000600fdff070026
:101ee0008045890070458900000006008101780066
:101ef0000002780030417800b14f510002003a00f2
:101f00000204e000f9ff3a009480fb001380fb001c
:101f10000080500000000600f1f92f008080400092
:101f2000f98f500001003e00f005b20000000600ed
:101f3000f9ff3700ec874700889fbe008a9fbe00ec
:101f40008c9fbe008e1f7800000678000104780088
:101f5000180790002805900098067800cdb79f00dc
:101f6000b8059000120278009202900022039000bf
:101f7000b20390000400be000601be004f18de0050
:101f80006011b8008000eb00d0b79f00e1b79f0060
:101f9000f2b79f0083bf9f00800478000900e00033
:101fa000060032006000b8006011b8000402500062
:101fb0008582580006035900878359000e00e0000f
:101fc000020035000d10a100cdb79f000900e00010
:101fd00005003a004fb097000028a30002003a0025
:101fe0000038a300020032008a00e9000100370037
:101ff0008a007800f8815700a200200008007800cd
:102000008b0007000900e00003003a00cfb0970002
:102010000128a300080032000000e900008145000b
:10202000b1c2b3000900e00001003200d1c2b30028
:1020300001497800060037000138a300040032008f
:102040000000e9008080450002c2b30082487800a9
:10205000480190000201e900000151008080450024
:102060004fb297008a0178000c0078006b020700dd
:102070009c0090000188a3000400320098009000aa
:10208000810f500001003d00010078004f077800eb
:102090004f06be004f05be004f04be00cf00b1008a
:1020a000000006000200fa00889fbe008a9fbe0062
:1020b0008005780001047800020078001801900083
:1020c0002805900098007800b1bf9f00b8049000e8
:1020d0000200e000020035000110a100b1bf9f0026
:1020e000ea815700820020008a0078001002780000
:1020f0009002900020039000b00390000800780048
:102100004b0007003fb99700f00061000400320067
:102110000000e9008080440002c3b30082487800d8
:102120003fb99700e8006100040032000000e900b8
:102130008080440002c2b3008248780048019000c9
:102140000201e90000015100808044003fba97007d
:102150008a0178000b007800300207009b00900095
:102160000188a3000400320098009000810f500005
:1021700001003d00010078004f05be004f04be0085
:102180000080fa0000000600ea874700889fbe0032
:102190008a9fbe008e1f780000047800030078003c
:1021a0007287570084e2260055c72600049fbe00b0
:1021b000c3962200030f78006c875700004feb0096
:1021c00011059000a1049000910578000200e00044
:1021d00002003200020778000100370072875700c2
:1021e0000000e00002003a000e0078001d05070024
:1021f0000a00e000030035008a0f5000010036009d
:102200000a0078000b02780089017800000178004c
:102210008e00780008007800000207004f07780061
:102220004f05be004f04be00af00b1000000060025
:10223000f4874700889fbe008a9fbe008c9fbe0027
:102240008e1f78000605be000404be0081bf9f00fb
:1022500082b79f00f3b79f00b0009000e1b79f00e6
:102260001301780092b79f00900690004000900004
:102270000000e900000678000d00e00001003d00cc
:102280001d002000efb19700008041000048eb00e6
:102290001e0020001f0037000c06e9000fb0970059
:1022a000cf80de006109b900a0b79f00b1b79f00e1
:1022b000c2b79f00d3b79f000203be000002be005a
:1022c0000800be000a01be00df0507000007780015
:1022d000efb097000c80400003c3b30003484700f1
:1022e0008d06e9000fb897000000e90080bf9f004d
:1022f0002fb29700bfb297004fb39700dfb397009c
:102300000800be000a01be00c80507000205be00a5
:102310000004be000c00e0000d003400e00f54008b
:10232000e08f5c00e00f5d00e08f5d00daff3a00b7
:102330000d00e000d8ff3c008fb897000100e000de
:10234000030034001fb197000218a300d2ff3a0027
:102350000e00e00002003a00ffb197001340a10018
:102360000c0078004f0778004f06be004f05be00f6
:102370004f04be004f01b100000006000200fa0049
:10238000889fbe008a9fbe00000578000104780087
:102390000200780018019000a804900098007800ce
:1023a000b1bf9f00b80590000200e00002003500b8
:1023b0000110a100b1bf9f00ea815700a2002000d8
:1023c00089007800100278009002900020039000ad
:1023d000b00390000800780095ff070048019000c6
:1023e0000201e90000015100808045003fba9700da
:1023f000890178000a007800880107009a0090009f
:102400000188a3000400320098009000810f500062
:1024100001003d00010078004f05be004f04be00e2
:102420000080fa0000000600fa874700889fbe007f
:102430008a9fbe008c9fbe008e1f780080047800ab
:1024400001047800820578001801900028059000aa
:1024500018077800b80090000200e0000200350084
:102460000e10a1000100370012002000700067006c
:10247000e0b79f000b0032001b0278009b02900027
:102480002b039000bb039000e00f5200e08f5a0036
:10249000e00f5b00e08f5b00020032008a86e900fb
:1024a000010037008a067800e8026700f5b79f0050
:1024b000010032008d06e9001b0278009b029000ab
:1024c0002b039000bb039000e4af9f00f5af9f008b
:1024d00086b79f0097b79f00480690000c06e9005a
:1024e0000c8040000048eb00efb297007fb29700ed
:1024f0008903780081047800d8af9f000204780037
:102500008bbf9f008a057800034578002b003700b9
:102510000c06e9006fab97006f006300e90f5000f5
:1025200002003c000003b000010037007005b0005d
:102530000a03fb001604b100f90f53000c003e0023
:10254000000378000650a0001606b100f90f5300f2
:1025500007003e00b4b79f00a5b79f00c7b79f0014
:102560006dfe0700cfb39700afb297003fb2970060
:102570000c834400004b78000804e9008d06e90054
:102580006fa89700ffa897000fb197009fb1970021
:10259000460020008301d1000281d3008180d30056
:1025a0000080d3000603e900faff3a00e0af9f0085
:1025b000f1af9f0082b79f0093b79f00e10f5600d5
:1025c0000f0034006fa89700ffa897000fb1970085
:1025d0009fb19700e00f5000e08f5800e00f5900c6
:1025e000e08f5900caff3a000800e000c8ff3c0035
:1025f0000d00e000020034000e18a300c4ff3a00f2
:1026000089007800f4b79f00870478005fac9700da
:102610008a4178000b0578008fbd97000500e00027
:10262000140032001b0278009b0290002b039000e4
:10263000bb039000e4af9f00f5af9f0086b79f00fb
:1026400097b79f00e00f5200e08f5a00e00f5b0049
:10265000e08f5b00070032000c06e9000c804000b0
:10266000034878000c06e9000c80400002c3b30068
:1026700002487800ffb297000500e0000400320035
:102680000c06e9000c80400002c2b300024878004a
:10269000480190000201e9000c0151008c804000cb
:1026a0000e0278008a01780009007800db0007003c
:1026b000990090000188a300040032009800900067
:1026c000810f500001003d00010078004f077800a5
:1026d0004f06be004f05be004f04be00af01b10063
:1026e000000006000200fa00881f7800000478004d
:1026f000e2bf9f006481570008007800890207004c
:10270000980090000148a300010032000080eb0017
:102710004f0478000080fa0000000600889fbe0089
:10272000000478004800900082047800808f5400f4
:1027300001003600800478000901780058009000fc
:10274000450307005800900009004000500498001d
:10275000c800900089845000490498000048eb00ac
:102760004f04be00000006001000780055f9370045
:10277000900190000388a30001003200e7ff3700ba
:102780000348a30001003a00f7ff0700000006001d
:1027900084082000848f50001d0032000d003c0092
:1027a00014082000848f50002700320002003c00f3
:1027b000040820000400370024082000848f500003
:1027c0003600320044082000848f500047003a0051
:1027d0003a003700040a2000848f5000290032009c
:1027e00004003c0004092000848f50003f003a00a0
:1027f0002a003700020c2000828f50003300320084
:10280000020f2000828f500038003a002f0037005e
:102810009380e9000200e0000500320081097800a1
:102820001102fb00cfa2de00612bb9002c003700a3
:1028300081097800114278000482fb008002eb00dd
:102840006033b8002600370013027800e40052001d
:102850000200e000060032008109780011027800d1
:10286000910290004fabde00860378001c00370019
:102870008109780011027800910290006033b8005d
:10288000170037009380e900810978001102780071
:10289000cfa2de00612bb90011003700930278004f
:1028a000e8805200810978001102780091029000be
:1028b00021039000b1039000090037009380e900e4
:1028c0000200e00002003200efff37009380e900d1
:1028d00081097800110278008002eb006033b800b3
:1028e0000498be000690be00100005000000050020
:1028f00044082000848f50002500320008003c006e
:1029000014082000848f5000140032002408200096
:10291000848f500024003200040820000c0037008f
:1029200004092000848f50001f00320004003c0086
:1029300084082000848f500024003a000e003700e5
:10294000040a2000848f500011003200040c200083
:10295000848f50001d003a000d0037009380e9007d
:10296000810978009100780001087800cf91de009d
:102970008288be00140037009380e9008109780046
:102980009100780001087800824878000e00370036
:102990009380e900810978009100780001087800af
:1029a00082087800080037009380e90081097800e8
:1029b00091007800010878006112b900612bb9001c
:1029c0008498be008690be0010000500000005003f
:1029d000889fbe00000478004800900082047800c0
:1029e000808f5400010036008004780009017800cf
:1029f000580090009802070058009000090040001d
:102a000050049800c8009000898450004904980040
:102a10000048eb004f04be0000000600f2874700ac
:102a2000889fbe008a9fbe008c9fbe008e1f7800cc
:102a3000800478000105780002047800830578009e
:102a40006107620002003a008b0f54000800390051
:102a5000080178008a0078000900780044ff070028
:102a60008b0f540002003900880578001e003700e3
:102a7000088655000c017800f00f56000100360062
:102a800002012000010220007e8057007902070029
:102a90008c0678000500370002012000fe805700f8
:102aa0000900780032ff0700f0865600ef8f5600cd
:102ab000f9ff3e004461de0000ff2f008091b90065
:102ac0000c014100fe8057000900780028ff070034
:102ad0000e00e00004003a00080178008a00780047
:102ae0000900780022ff07000b0078004f077800ec
:102af0004f06be004f05be004f04be002f01b100bf
:102b000000000600000005000000050000000500b0
:102b1000000178000040eb008080fb0081804000d5
:102b2000c394220081814100134278000404e00034
:102b300004003a00d0942200810040001140780047
:102b40000000060092017800934f520005003a0001
:102b5000d094220081004000114078000309e80071
:102b6000010037000040e800ea4f5000eaff36005d
:102b700000000600f6874700889fbe008a9fbe00bf
:102b80008c9fbe008e1f780000057800010478003d
:102b900083057800040678000000eb00c0b79f00b2
:102ba0008080eb00d1b79f00e0b79f00f2b79f0095
:102bb0000008200080bf9f00980078000100780086
:102bc0008004eb00010037008904e8003041780000
:102bd0000204e0000300320053c2b300834f5100ef
:102be000f9ff3a000900e000040032000901780012
:102bf0000a007800defe0700188c440018077800f1
:102c000050c2b3009e4f10003f013a000e07e8008b
:102c10000e0c780010003700cfb097000100a00024
:102c20000b003700cfb097000110a000080037005c
:102c3000cfb097000120a00005003700cfb097006b
:102c40000130a00002003700cfb097000140a00083
:102c5000c1b79f00000ce800180078009040780091
:102c6000b2c2b30082cf5000f1ff320007003c0037
:102c700002c2b30082cf5000f0ff320032c2b30074
:102c800082cf500007003a00efff3700d2c2b300f6
:102c900082cf5000e0ff320002c3b30082cf500069
:102ca000e0ff3200a2c2b30082cf50000d003a0014
:102cb000000ce8001c80e900000e7800100078008d
:102cc000e0b79f000000e0000f003d00cfb097008c
:102cd0000100a200c1b79f000000ea00e0b79f001a
:102ce0000900370084010700e0b79f0001003700aa
:102cf000000ce800180078009000fb000103b10010
:102d0000e98f5000faff36004fb097000008a3008b
:102d1000020032000010a100c0b79f001800780028
:102d2000e1c2b30090cf100016003a008000eb0023
:102d3000d1b79f000000e800000c7800a1c2b300ea
:102d400090cf100006003a00000ce8001c80e9005b
:102d5000000e780010007800d0b79f0009003700ff
:102d600065010700d0b79f0001003700000ce800a4
:102d7000180078009000fb000103b100e98f5000bb
:102d8000faff36000800780061ff070080467800ef
:102d9000180078001000fb00540207009106200084
:102da000810f50003800320012003c004106200024
:102db000810f5000340032000a003c001106200050
:102dc000810f50002000320031062000810f50009a
:102dd000a000320051022000810f5000bc003a00d8
:102de000b400370071062000810f5000b8003c008d
:102df0008800370001072000810f50005c0032007e
:102e000007003c00e1062000810f50007a003200ec
:102e1000f1062000810f5000ad003a003900370064
:102e200051072000810f5000270032008107200049
:102e3000810f50004200320031072000810f500006
:102e4000a3003a008f0037008d80fb000c01780052
:102e500000fe2f000f0040002f0207000000e000de
:102e6000a800320018007800000ce80090417800bb
:102e700002fe2f000f014100f88057000a00780081
:102e800021ff07000e0037008d80fb008c017800c9
:102e90001200200000fe2f000f0040003cfe070043
:102ea0000000e00097003200180ce80002fe2f003e
:102eb0000f014100f88057000a0078001dfc070050
:102ec00080844400900037008d80fb008c017800e6
:102ed0000001eb0000fe2f000f0040002cfe070059
:102ee0000000e00087003200180ce80002fe2f000e
:102ef0000f014100f88057000a0078001ffd07000d
:102f0000efff37008d80fb008c0178000001eb00a3
:102f100000fe2f000f0040001dfe07000000e00033
:102f200078003200180ce80002fe2f000f0141006b
:102f3000f88057000a0078005afc0700e0ff3700cd
:102f40008d80fb008c0178000001eb0000fe2f005b
:102f50000f0040000efe07000000e0006900320094
:102f600018007800000ce800904178001c00370041
:102f70008c0178000001eb00010f200000fe2f0003
:102f80000f00400002fe07000000e0005d0032007c
:102f9000180ce8000fb097009fb097002fb1970072
:102fa000bfb19700e00f5000e08f5800e00f5900cc
:102fb000e08f590009003a00cfb597006fb4970031
:102fc00040942200a70107000b02780088017800d6
:102fd00000017800419422004700370083c7b30006
:102fe00002fe2f000f014100f88057000a00780010
:102ff0000dfd0700b2ff37000b8144008d80fb0000
:103000008c01780000fe2f000f00400038fe070002
:103010003c0037008d80fb000c01780000fe2f0083
:103020000f004000bc0107000000e0003500320046
:1030300018007800000ce8009041780002fe2f0094
:103040000f014100f88057000a007800aefe07002b
:103050009bff370000c8b30080cf560029003a001c
:10306000180ce8001c80e900000e78001040780081
:10307000e0df9f0013002000e2fd2f000f01410060
:103080000800370000c8b30080cf56001d003a008a
:10309000180ce8001c80e900000e78008001eb00ad
:1030a00010017800f88057000a00780036fc07000d
:1030b00083ff370000c8b30080cf560011003a00ec
:1030c000180ce8004fb29700efb1970008003700e6
:1030d0000e0c78000000eb00c0b79f00e0b79f0027
:1030e0000080eb00d0b79f000002eb008401780065
:1030f00012002000a19422000a00780047fe070079
:103100006fff3700180ce800090078004f077800bf
:103110004f06be004f05be004f04be006f01b10058
:10312000000006008200fa00889fbe008a1f780017
:103130000005780082047800c13f9f000004eb0086
:10314000100037000902780088017800a2f72f00ec
:103150000f01410081f72f008f8040000a007800a6
:1031600084fe070008004000880f500004003d0066
:10317000b0042000304b89000084eb0004003700cd
:10318000000478004f3897001004e000edff3a008b
:10319000080078004f0578004f04be000080fa0058
:1031a00000000600889fbe000004be000000eb0087
:1031b0000800e00018003200180090000058a3003a
:1031c0000d003200d800900068009000808f500001
:1031d00009003600b80990000001eb008200780079
:1031e0000800780003000100d80090000080eb0088
:1031f0000100e000080032000000eb00200c980005
:1032000060049800500498000900e00002003200b9
:1032100018007800a2f607004f04be000000060068
:10322000889fbe000004be000000eb000800e00024
:1032300025003200180090000058a3001100320051
:10324000d800900068009000808f50000900360080
:10325000b80990000001eb008200780008007800b7
:1032600003000100d80090000080eb000100e000a6
:10327000150032000000eb00200c9800600498005c
:1032800050049800780a900008109000800f5200b7
:10329000060031000002520011002000cfa2de0023
:1032a000612bb90018007800650007000000eb00f2
:1032b00000149800700c98000900e0000200320031
:1032c0001800780076f607004f04be0000000600e4
:1032d000800078001000200002022000828f500041
:1032e00004003200e9805000e48f500001003600f5
:1032f0000000eb0000000600889fbe008a1f7800d7
:10330000000578000a047800984478000805e80071
:103310000900fb00eeff07000000e000f9ff3a00a3
:10332000b0c2b30080cf540005003200d0c2b30059
:103330008000eb0080cf540005003a000200370007
:103340008000eb0001003700110020000804e800b5
:103350000000eb0003003700ea00b9000200500053
:103360000003b0003801fb0003fd2f008281410003
:10337000e98f5100f8ff36000100e00001003a003b
:103380000000ea004f0578004f04be000000060070
:10339000889fbe008a1f78008004780001057800ad
:1033a00009007800af000700000478008a01780067
:1033b0000801780011002000090078000a000700c9
:1033c000800078000080eb00888f500001003a00f8
:1033d0000000eb004f0578004f04be00000006001f
:1033e0001000780037f63700889fbe008a1f7800eb
:1033f000810478000204780089c5b9000900e00062
:1034000001003a000004eb000a0178008000780017
:1034100003007800d4fc0700800078008a8f5000f9
:1034200003003200110009008980d80000047800f0
:10343000080078004f0578004f04be000000060029
:10344000a0fd2f00f1ff2f009e0007004f89de0036
:103450008201780000000600800178000200370039
:10346000b15978000201e9000200e000fcff3a00d7
:1034700000000600889fbe008a9fbe00800478007e
:103480000200e0005b00320001407800814c7800cf
:1034900082814400f1f99f00e20f5100550036008f
:1034a00091449800a1449800e1f99f00d1f99f0050
:1034b000e60f51004f003600b1449800c1f99f005b
:1034c000e80f51004b0036000905ea00630565006e
:1034d0000a8444000a055100c1ff2f000105650060
:1034e0000080fb008000eb00121020001310200071
:1034f000ad000700008cbe000a01440060b99f00c7
:1035000071b99f00e80f55003a003600200498007a
:1035100031049800400498005104980020b99f009d
:1035200031b99f0040b99f0051b99f00f80f550075
:10353000300036006004980071049800000c980078
:10354000110c9800200c9800310c9800400c980049
:10355000510c980020b19f0031b19f0040b19f00f5
:1035600051b19f0060b19f0071b19f0000b99f00f1
:1035700011b99f0064016400780141000204440015
:10358000020555006011b8000203be000002be0033
:103590000403be006022b800000072008180720047
:1035a000020173008381730010003700009cbe008d
:1035b0000294be00400498005104980062049800f0
:1035c00073049800000c9800110c9800220c9800cd
:1035d000330c9800400c9800510c9800620c980035
:1035e000730c98000a02b1000802b000ff0f5500ea
:1035f000eeff3e00090078004f05be004f04be00fc
:10360000000006000200fa0081017800e0ff9f0040
:10361000930090000188a30005003200d3009000c1
:10362000805878000080fb00d10198000a00370024
:10363000120020008f80e900030078004afc070098
:10364000800078000080eb000100e0000200320002
:10365000eff897000180fb000080fa0000000600f0
:10366000e8ff370080007800040037003104e000f4
:1036700002003a000000510000000600010178003d
:103680000108a300f9ff3a008101780031017800b8
:10369000f4ef2f00020242000281ea000201620000
:1036a0000408280004016100f7ff3200830078005d
:1036b000010178003104e000fdff3a0000005100f4
:1036c0000000060002002f00f3ff2f00820f5000c1
:1036d000838f5800040036000000ea00304b890058
:1036e0000080eb008080eb0000000600f1fb2f0063
:1036f00080804000f98f500001003e000050a00083
:1037000000000600f9ff370000000600f3f907008b
:10371000fdff0700fcff3700881f780000047800d9
:1037200000082000808f50001a003500100820008b
:10373000808f50000d00340030082000808f500032
:1037400014003a0092007800688050000009780068
:10375000100278009002900020039000b0039000c7
:10376000049cbe000694be00080037009202780058
:1037700064805200000978009000900010007800ea
:1037800077f50700009cbe000294be0010002000e8
:10379000010037000000eb004f0478000000060035
:1037a00000c0da0000000600020ab900001bb900e0
:1037b0000200b800810042008100430000000600c2
:1037c000889fbe008a9fbe0030044200b0844a0039
:1037d00030054b0090854b006000b1000898be009a
:1037e0000a90be000440e10005c8e10006d0e100f7
:1037f00007d8e10002003100680040001008e8002e
:103800004f05be004f04be0000000600889fbe00aa
:103810008a9fbe001004780090049000200590005c
:10382000b00590000418540005985c0006185d006f
:1038300007985d00110020000440e10005c8e10088
:1038400006d0e10007d8e100010039008000eb005c
:10385000108810004f05be004f04be000000060097
:103860001200fa00889fbe008a9fbe008c9fbe0097
:10387000e0b79f00f1b79f0082bf9f0093bf9f00fa
:103880000605be000404be000000eb00d0b79f0098
:10389000c0b79f00b0b79f00a0b79f0090b79f0030
:1038a000000678005fb19700cfb097008201410019
:1038b0003fb097000200e00004003d003700070021
:1038c0007e805700beff070003003700330007006b
:1038d0007e805700cdff0700dfb697000d00e000a7
:1038e0000c0035006fb29700ffb297000fbb970036
:1038f0009fbb970010002000010020006011b8005d
:1039000000027200818272000203730083837300dd
:103910001b0007000c06e80001042000810f560080
:10392000e0ff3a000d00e00004003d000802be0088
:103930000a03be007e805700a1ff07005fa8970022
:103940000000e00005003a001fb29700afb29700f8
:103950003fb39700cfb39700090007006fb09700ff
:10396000ffb097000fb997009fb997004f06be00b0
:103970004f05be004f04be000080fa0000000600a4
:103980000100070000000600a4b79f00b5b79f0024
:10399000c6b79f00d7b79f00000006004f09de00a2
:1039a00082817100b3b79f004f01de00818040002b
:1039b00082807000a1b79f008fb097004f09de0092
:1039c000000040000200700090b79f007fa89700a1
:1039d0004f01de00818040008280700081b79f002f
:1039e0000d0007004f3ade000000400004007000a8
:1039f000f0af9f00080007000402420085824a00e1
:103a000006034b0087834b00dfff07000802be0060
:103a10000a03be00000006002fb29700bfb2970055
:103a20004fb39700dfb3970000000600881f7800af
:103a300018002000881f780089ff07008f87e900a1
:103a40004f04780000000600801feb0084ff070091
:103a50008f87e90000000600889fbe008a9fbe0095
:103a6000e00f5000e08f5800e00f5900e08f590040
:103a70000c003d006044b8006055b80000005400e0
:103a800081805c0002015d0083815d0018002000e0
:103a90001500070008003d00180007000004eb00b7
:103aa000050037000004eb000f00070002003d0096
:103ab0001200070018002000dcff07000800e000eb
:103ac000060032006022b8006033b80000005200e7
:103ad00081805a0002015b0083815b004f05be00bc
:103ae0004f04be0000000600e00f5200e08f5a00b5
:103af000e00f5b00e08f5b00000006006044b80050
:103b00006055b8000402540085825c0006035d0025
:103b100087835d0000000600889fbe008a9fbe006c
:103b20008c1f7800e00f5000e08f5800e00f590024
:103b3000e08f59000d003d006044b8006055b800aa
:103b40000000540081805c0002015d0083815d0003
:103b50001c0020000820e10009a8e1000ab0e100f3
:103b60000bb8e1000d003d00080037000006eb0037
:103b7000e00f5200e08f5a00e00f5b00e08f5b0027
:103b800006003d006044b8006055b80004025400cf
:103b900085825c0006035d0087835d00aaff070045
:103ba0000c00e000060032006022b8006033b8006c
:103bb0000000520081805a0002015b0083815b009b
:103bc0004f0678004f05be004f04be0000000600ff
:020000040000fa
:103bd00000030000060900000c100000131600008e
:103be000191c00001f220000252800002b2e0000b9
:103bf00031330000363900003c3f000041440000f2
:103c0000474900004c4e0000515300005558000039
:103c10005a5c00005e60000062640000666800009c
:103c20006a6b00006d6f000070710000737400001b
:103c300075760000787900007a7a00007b7c0000bd
:103c40007d7d00007e7e00007e7f00007f7f000083
:103c50007f7f00007f7f00007e7e00007e7d000071
:103c60007d7c00007b7a00007a7900007876000085
:103c70007574000073710000706f00006d6b0000c0
:103c80006a68000066640000626000005e5c00001c
:103c90005a58000055530000514e00004c49000096
:103ca00047440000413f00003c390000363300002b
:103cb000312e00002b280000252200001f1c0000d0
:103cc00019160000131000000c0900000603000084
:103cd00000fd0000faf70000f4f00000edea00003b
:103ce000e7e40000e1de0000dbd80000d5d20000f0
:103cf000cfcd0000cac70000c4c10000bfbc000097
:103d0000b9b70000b4b20000afad0000aba800002e
:103d1000a6a40000a2a000009e9c00009a980000ab
:103d20009695000093910000908f00008d8c00000c
:103d30008b8a00008887000086860000858400004a
:103d40008383000082820000828100008181000064
:103d50008181000081810000828200008283000056
:103d6000838400008586000086870000888a000022
:103d70008b8c00008d8f00009091000093950000c7
:103d8000969800009a9c00009ea00000a2a400004b
:103d9000a6a80000abad0000afb20000b4b70000b1
:103da000b9bc0000bfc10000c4c70000cacd0000fc
:103db000cfd20000d5d80000dbde0000e1e4000037
:103dc000e7ea0000edf00000f4f70000fafd000063
:103dd000000000000000000024030000480600006e
:103de0006a0900008c0c0000ab0f0000c812000034
:103df000e2150000f91800000b1c00001a1f00005b
:103e00002322000028250000262800001f2b000088
:103e1000112e0000fb300000df330000ba36000036
:103e20008c390000563c0000173f0000ce410000d6
:103e30007a4400001c470000b44900003f4c0000d9
:103e4000bf4e0000335100009b530000f5550000a9
:103e500042580000825a0000b35c0000d75e0000a8
:103e6000eb600000f1620000e8640000cf66000033
:103e7000a66800006d6a0000236c0000c96d000098
:103e80005e6f0000e270000054720000b573000025
:103e900004750000417600006b7700008478000014
:103ea000897900007c7a00005c7b0000297c00009e
:103eb000e37c0000897d00001d7e00009c7e0000e8
:103ec000097f0000617f0000a67f0000d87f00000e
:103ed000f57f0000ff7f0000f57f0000d87f000025
:103ee000a67f0000617f0000097f00009c7e00002b
:103ef0001d7e0000897d0000e37c0000297c00001d
:103f00005c7b00007c7a00008979000084780000e6
:103f10006b7700004176000004750000b573000067
:103f200054720000e27000005e6f0000c96d000076
:103f3000236c00006d6a0000a6680000cf660000d8
:103f4000e8640000f1620000eb600000d75e000052
:103f5000b35c0000825a000042580000f555000092
:103f60009b53000033510000bf4e00003f4c000047
:103f7000b44900001c4700007a440000ce41000014
:103f8000173f0000563c00008c390000ba36000094
:103f9000df330000fb300000112e00001f2b00005b
:103fa0002628000028250000232200001a1f0000f8
:103fb0000b1c0000f9180000e2150000c8120000f8
:103fc000ab0f00008c0c00006a09000048060000de
:103fd0002403000000000000dcfc0000b8f9000031
:103fe00096f6000074f3000055f0000038ed000074
:103ff0001eea000007e70000f5e30000e6e000002d
:10400000dddd0000d8da0000dad70000e1d40000de
:10401000efd1000005cf000021cc000046c9000010
:1040200074c60000aac30000e9c0000032be000050
:1040300086bb0000e4b800004cb60000c1b300002d
:1040400041b10000cdae000065ac00000baa00003d
:10405000bea700007ea500004da3000029a100001e
:10406000159f00000f9d0000189b00003199000073
:104070005a97000093950000dd93000037920000ee
:10408000a29000001e8f0000ac8d00004b8c000041
:10409000fc8a0000bf890000958800007c87000032
:1040a0007786000084850000a4840000d783000088
:1040b0001d83000077820000e3810000648100001e
:1040c000f78000009f8000005a80000028800000d8
:1040d0000b800000018000000b80000028800000a1
:1040e0005a8000009f800000f7800000648100007b
:1040f000e3810000778200001d830000d783000069
:10410000a484000084850000778600007c8700007e
:1041100095880000bf890000fc8a00004b8c0000dd
:10412000ac8d00001e8f0000a290000037920000ae
:10413000dd930000939500005a970000319900002c
:10414000189b00000f9d0000159f000029a1000092
:104150004da300007ea50000bea700000baa000032
:1041600065ac0000cdae000041b10000c1b300005d
:104170004cb60000e4b8000086bb000032be000070
:10418000e9c00000aac3000074c6000046c90000d0
:1041900021cc000005cf0000efd10000e1d40000e9
:1041a000dad70000d8da0000dddd0000e6e000002c
:1041b000f5e3000007e700001eea000038ed00000c
:1041c00055f0000074f3000096f60000b8f9000006
:1041d000dcfc000000000000000000000000000007
:1041e000bf2a0000240300007cd90000470600001d
:1041f000499000006a0900005ed300008b0c0000ab
:104200002b270000ab0f00006e100000c81200004a
:1042100044140000e21500003cb80000f81800004b
:104220006a8200000b1c00007bf90000191f0000cf
:10423000c5a40000232200005d0c0000282500001a
:1042400028b9000026280000eb3400001f2b0000d6
:10425000620a0000112e00004dc50000fb30000076
:1042600087f20000de33000013200000ba360000a1
:1042700032dd00008c39000070ba0000563c0000ae
:10428000b7490000173f0000641e0000ce41000047
:1042900050cd00007a440000e6ec00001c4700000e
:1042a00033150000b4490000f3df00003f4c00006c
:1042b000a4e80000bf4e000094cc00003351000081
:1042c000ef2a00009b530000d2a40000f555000027
:1042d00054dd00004258000099790000825a000025
:1042e000df200000b45c0000897c0000d75e000085
:1042f0002f380000ec600000ac010000f26200000a
:1043000025890000e86400001f810000cf660000de
:10431000809e0000a6680000a39800006d6a00005f
:104320005f290000246c0000140d0000ca6d00001d
:10433000b10200005f6f0000c5cb0000e27000001a
:10434000842c000055720000d0eb0000b573000013
:1043500044d30000047500003caf0000417600002b
:10436000da4e00006c7700001384000084780000af
:10437000b02300008a7900005a0500007d7a000011
:104380009d0300005d7b0000edfb0000297c000028
:10439000b1ce0000e37c00003f5f00008a7d00009a
:1043a000e99300001d7e0000fb5500009d7e00008b
:1043b000c3910000097f00008e360000627f00007c
:1043c000b3360000a77f00008d870000d87f000073
:1043d00081210000f67f0000ffff0000ff7f00004a
:1043e00081210000f67f00008d870000d87f00004b
:1043f000b3360000a77f00008e360000627f000009
:10440000c3910000097f0000fb5500009d7e000065
:10441000e99300001d7e00003f5f00008a7d0000e0
:10442000b1ce0000e37c0000edfb0000297c000021
:104430009d0300005d7b00005a0500007d7a0000ae
:10444000b02300008a790000138400008478000003
:10445000da4e00006c7700003caf000041760000af
:1044600044d3000004750000d0eb0000b5730000d9
:10447000842c000055720000c5cb0000e2700000e3
:10448000b10200005f6f0000140d0000ca6d000053
:104490005f290000246c0000a39800006d6a0000f2
:1044a000809e0000a66800001f810000cf6600000b
:1044b00025890000e8640000ac010000f262000001
:1044c0002f380000ec600000897c0000d75e0000ff
:1044d000df200000b45c000099790000825a0000df
:1044e00054dd000042580000d2a40000f555000041
:1044f000ef2a00009b53000094cc000033510000d1
:10450000a4e80000bf4e0000f3df00003f4c0000b5
:1045100033150000b4490000e6ec00001c47000021
:1045200050cd00007a440000641e0000ce4100001f
:10453000b7490000173f000070ba0000563c000069
:1045400032dd00008c39000013200000ba36000074
:1045500087f20000de3300004dc50000fb30000094
:10456000620a0000112e0000eb3400001f2b000037
:1045700028b90000262800005d0c00002825000056
:10458000c5a40000232200007bf90000191f0000d1
:104590006a8200000b1c00003cb80000f818000004
:1045a00044140000e21500006e100000c812000064
:1045b0002b270000ab0f00005ed300008b0c000027
:1045c000499000006a0900007cd9000047060000fd
:1045d000bf2a0000240300000000000000000000cb
:1045e00041d50000dbfc000084260000b8f9000083
:1045f000b76f000095f60000a22c000074f30000d5
:10460000d5d8000054f0000092ef000037ed000014
:10461000bceb00001dea0000c447000007e70000f3
:10462000967d0000f4e3000085060000e6e000004f
:104630003b5b0000dcdd0000a3f30000d7da0000e4
:10464000d8460000d9d7000015cb0000e0d4000008
:104650009ef50000eed10000b33a000004cf000048
:10466000790d000021cc0000eddf000045c90000fd
:10467000ce22000073c6000090450000a9c30000d0
:1046800049b60000e8c000009ce1000031be000017
:10469000b032000085bb00001a130000e3b8000030
:1046a000cdea00004bb600000d200000c0b30000b2
:1046b0005c17000040b100006c330000ccae00007d
:1046c00011d5000064ac00002e5b00000aaa0000b7
:1046d000ac220000bda70000678600007da5000099
:1046e00021df00004ba300007783000028a1000019
:1046f000d1c70000139f000054fe00000d9d000074
:10470000db760000179b0000e17e0000309900007e
:1047100080610000599700005d67000092950000dd
:10472000a1d60000db930000ecf2000035920000ff
:104730004ffd0000a09000003b3400001d8f0000e2
:104740007cd30000aa8d0000301400004a8c0000c9
:10475000bc2c0000fb8a0000c4500000be89000091
:1047600026b1000093880000ed7b00007b870000ed
:1047700050dc000075860000a6fa0000828500006b
:1047800063fc0000a284000013040000d683000034
:104790004f3100001c830000c1a0000075820000a2
:1047a000176c0000e281000005aa00006281000091
:1047b0003d6e0000f680000072c900009d80000080
:1047c0004dc9000058800000737800002780000069
:1047d0007fde000009800000010000000080000072
:1047e0007fde000009800000737800002780000051
:1047f0004dc900005880000072c900009d80000073
:104800003d6e0000f680000005aa000062810000f5
:10481000176c0000e2810000c1a00000758200005a
:104820004f3100001c83000013040000d6830000f9
:1048300063fc0000a2840000a6fa0000828500004c
:1048400050dc000075860000ed7b00007b870000d7
:1048500026b1000093880000c4500000be8900000b
:10486000bc2c0000fb8a0000301400004a8c0000c1
:104870007cd30000aa8d00003b3400001d8f000097
:104880004ffd0000a0900000ecf200003592000007
:10489000a1d60000db9300005d6700009295000048
:1048a0008061000059970000e17e0000309900000f
:1048b000db760000179b000054fe00000d9d0000f9
:1048c000d1c70000139f00007783000028a10000db
:1048d00021df00004ba30000678600007da50000db
:1048e000ac220000bda700002e5b00000aaa000059
:1048f00011d5000064ac00006c330000ccae0000a9
:104900005c17000040b100000d200000c0b30000a3
:10491000cdea00004bb600001a130000e3b8000017
:10492000b032000085bb00009ce1000031be0000f9
:1049300049b60000e8c0000090450000a9c300008f
:10494000ce22000073c60000eddf000045c9000064
:10495000790d000021cc0000b33a000004cf000024
:104960009ef50000eed1000015cb0000e0d4000061
:10497000d8460000d9d70000a3f30000d7da000022
:104980003b5b0000dcdd000085060000e6e0000087
:10499000967d0000f4e30000c447000007e7000034
:1049a000bceb00001dea000092ef000037ed0000b4
:1049b000d5d8000054f00000a22c000074f30000d1
:1049c000b76f000095f6000084260000b8f90000db
:1049d00041d50000dbfc00000000000000000000ea
:1049e00000000000000000000101000001010000c3
:1049f00001010000020200000202000002020000a9
:104a0000030300000303000003030000040400008c
:104a10000404000004040000040500000505000073
:104a20000505000005060000060600000606000059
:104a3000060700000707000007070000070800003e
:104a40000808000008080000080800000909000024
:104a500009090000090900000a0a00000a0a00000a
:104a60000a0a00000b0b00000b0b00000b0b0000f0
:104a70000c0c00000c0c00000c0c00000d0d0000d4
:104a80000d0d00000d0d00000e0e00000e0e0000ba
:104a90000e0e00000f0f00000f0f00000f0f0000a0
:104aa0001010000010100000101100001111000083
:104ab0001111000011120000121200001212000069
:104ac000121300001313000013130000141400004d
:104ad0001414000014140000151500001515000032
:104ae0001516000016160000161600001617000016
:104af00017170000171700001818000018180000fa
:104b00001819000019190000191900001a1a0000dc
:104b10001a1a00001a1a00001b1b00001b1b0000c1
:104b20001c1c00001c1c00001c1d00001d1d0000a2
:104b30001d1d00001e1e00001e1e00001e1f000086
:104b40001f1f00001f200000202000002020000068
:104b50002121000021210000222200002222000049
:104b60002323000023230000242400002424000029
:104b70002525000025250000262600002626000009
:104b800027270000272700002828000028290000e8
:104b9000292900002a2a00002a2a00002b2b0000c5
:104ba0002b2c00002c2c00002d2d00002d2e0000a1
:104bb0002e2f00002f2f0000303000003131000078
:104bc000323200003233000033340000353500004b
:104bd0003636000037380000393a00003b3c000010
:104be000400000000000000029000000510000000b
:104bf0007a000000a3000000cc000000f4000000d8
:104c00001d010000460100006f0100009801000036
:104c1000c0010000e9010000120200003b02000098
:104c2000640200008c020000b5020000de020000f9
:104c30000703000030030000590300008103000057
:104c4000aa030000d3030000fc03000025040000b9
:104c50004e04000077040000a0040000c904000016
:104c6000f20400001b050000440500006d05000073
:104c700097050000c0050000e905000012060000cd
:104c80003b060000640600008e060000b706000028
:104c9000e00600000a070000330700005c07000080
:104ca00086070000af070000d907000002080000d7
:104cb0002c080000560800007f080000a90800002a
:104cc000d3080000fc08000026090000500900007d
:104cd0007a090000a4090000ce090000f7090000cd
:104ce000210a00004c0a0000760a0000a00a000019
:104cf000ca0a0000f40a00001f0b0000490b000064
:104d0000730b00009e0b0000c80b0000f30b0000ab
:104d10001d0c0000480c0000730c00009d0c0000ee
:104d2000c80c0000f30c00001e0d0000490d00002f
:104d3000740d00009f0d0000ca0d0000f50d00006d
:104d4000210e00004c0e0000780e0000a30e0000a3
:104d5000cf0e0000fa0e0000260f0000520f0000d8
:104d60007d0f0000a90f0000d50f0000011000000a
:104d70002e1000005a10000086100000b310000032
:104d8000df1000000c110000381100006511000058
:104d900092110000bf110000ec1100001912000078
:104da0004612000073120000a0120000ce12000094
:104db000fb120000291300005713000085130000a8
:104dc000b3130000e11300000f1400003d140000b5
:104dd0006c1400009a140000c9140000f7140000bd
:104de000261500005515000084150000b4150000bc
:104df000e3150000131600004216000072160000b2
:104e0000a2160000d21600000217000032170000a0
:104e10006317000093170000c4170000f517000087
:104e2000261800005718000089180000ba18000062
:104e3000ec1800001e190000501900008219000033
:104e4000b4190000e7190000191a00004c1a0000fc
:104e50007f1a0000b31a0000e61a00001a1b0000b7
:104e60004e1b0000821b0000b61b0000eb1b000065
:104e70001f1c0000541c00008a1c0000bf1c000006
:104e8000f51c00002a1d0000611d0000971d000098
:104e9000ce1d0000041e00003c1e0000731e00001a
:104ea000ab1e0000e31e00001b1f0000531f00008c
:104eb0008c1f0000c51f0000ff1f000039200000ec
:104ec00073200000ad200000e82000002321000036
:104ed0005f2100009a210000d7210000132200006a
:104ee000502200008e220000cb2200000a23000086
:104ef0004823000087230000c72300000724000088
:104f00004824000089240000ca2400000c25000069
:104f10004f25000092250000d62500001a2600002b
:104f20005f260000a4260000eb26000032270000c8
:104f300079270000c12700000b280000542800003a
:104f40009f280000eb28000037290000842900007a
:104f5000d2290000212a0000722a0000c32a000082
:104f6000152b0000692b0000be2b0000142c000044
:104f70006b2c0000c42c00001e2d00007a2d0000b8
:104f8000d82d0000372e0000992e0000fc2e0000c6
:104f9000622f0000ca2f000034300000a130000052
:104fa0001131000085310000fc3100007732000033
:104fb000f63200007a33000003340000933400001e
:104fc0002a350000ca35000073360000293700007a
:104fd000ef370000ca380000c2390000e73a00008d
:104fe000663c0000004000000000000000000000df
:104ff00068be000028000000f87c0000510000009e
:10500000da3b00007a00000036fb0000a20000003e
:1050100035bb0000cb000000007c0000f400000065
:10502000c03d00001d0100009d0000004601000081
:10503000c1c400006e010000548a00009701000006
:105040007f510000c00100006c1a0000e90100005f
:1050500043e50000110200002fb200003a020000f8
:105060005781000063020000e55200008c0200003e
:1050700003270000b5020000dbfd0000dd02000098
:1050800095d70000060300005cb400002f03000069
:105090005994000058030000b77700008103000016
:1050a0009f5e0000aa0300003b490000d3030000fc
:1050b000b7370000fc0300003c2a00002504000074
:1050c000f42000004e0400000c1c000077040000d7
:1050d000ad1b0000a004000003200000c904000074
:1050e00038290000f2040000793700001b05000099
:1050f000f24a000044050000cc6300006d0500008a
:1051000036820000960500005ba60000bf05000087
:1051100067d00000e80500008700000012060000cc
:10512000e83600003b060000b7730000640600008c
:1051300021b700008d06000054010000b7060000f2
:105140007e520000e0060000cdaa00000907000022
:105150006f0a000033070000937100005c07000035
:1051600067e00000850700001c570000af07000043
:10517000e0d50000d8070000e45c00000208000051
:1051800057ec00002b0800006b840000550800005d
:105190004f2500007f08000036cf0000a80800005f
:1051a00050820000d2080000cf3e0000fc08000042
:1051b000e704000026090000c9d400004f090000e0
:1051c000a8ae000079090000b9920000a309000010
:1051d0002e810000cd0900003c7a0000f709000094
:1051e000197e0000210a0000f88c00004b0a000024
:1051f00010a70000750a000097cc00009f0a00006d
:10520000c4fd0000c90a0000cc3a0000f40a000006
:10521000e98300001e0b000052d90000480b00007b
:105220003f3b0000730b0000eba900009d0b00004a
:105230008e250000c80b000062ae0000f20b0000db
:10524000a44400001d0c00008ee80000470c000084
:105250005b9a0000720c00004a5a00009d0c00008e
:1052600097280000c80c000080050000f30c000027
:1052700043f100001d0d000021ec0000480d00006e
:1052800059f60000730d00002c1000009f0d000067
:10529000db390000ca0d0000a8730000f50d000006
:1052a000d7bd0000200e0000ab1800004c0e00001f
:1052b00069840000770e000056010000a30e000074
:1052c000b98f0000ce0e0000d82f0000fa0e0000ab
:1052d000fbe10000250f00006ca60000510f00004c
:1052e000757d00007d0f00005f670000a90f0000c2
:1052f00077640000d50f00000a750000011000005f
:10530000659900002d100000d7d100005910000051
:10531000b11e00008610000042800000b2100000a4
:10532000def60000de100000d78200000b11000046
:10533000822400003811000035dc000064110000f8
:1053400046aa0000911100000e8f0000be1100005f
:10535000e68a0000eb1100002a9e000018120000ef
:1053600035c9000045120000640c000073120000f3
:1053700018680000a0120000b1dc0000cd1200008f
:10538000906a0000fb1200001a12000029130000ae
:10539000b4d3000056130000c5af00008413000012
:1053a000b4a60000b2130000eeb80000e013000045
:1053b000dde600000e140000f03000003d14000097
:1053c000979700006b140000431b00009a14000024
:1053d00068bc0000c81400007d7b0000f7140000ca
:1053e000f95800002615000055550000551500001d
:1053f0001071000084150000a6ac0000b315000079
:105400009a080000e31500006e85000012160000e7
:10541000a823000042160000d1e30000711600002e
:1054200074c60000a11600001fcc0000d1160000b9
:1054300062f5000001170000d142000032170000a1
:1054400002b5000062170000904c000093170000a6
:10545000150a0000c417000033ee0000f417000026
:105460008df9000025180000ca2c00005718000014
:105470009388000088180000980d0000ba180000fa
:1054800089bc0000eb1800001e9600001d190000ea
:105490000f9b00004f1900001acc0000811900007a
:1054a000032a0000b419000090b50000e6190000be
:1054b0008d6f0000191a0000c95800004c1a000036
:1054c0001c7200007f1a00005ebc0000b21a0000cf
:1054d00070380000e61a000037e70000191b0000d2
:1054e0009fc900004d1b000098e00000811b0000d8
:1054f0001a2d0000b61b000023b00000ea1b0000bc
:10550000b66a00001f1c0000de5d0000541c000095
:10551000af8a0000891c000041f20000be1c0000a0
:10552000b7950000f41c0000397600002a1d000029
:10553000f9940000601d000033f30000961d000088
:1055400029920000cd1d000028730000041e0000f9
:10555000889700003b1e0000a9000000731e000099
:10556000f7af0000aa1e0000e9a60000e21e00003e
:1055700001e700001a1f0000cf710000531f000058
:10558000ed4800008c1f0000046e0000c51f0000e5
:10559000cbe20000fe1f000008a900003820000038
:1055a0008ec200007220000042310000ad200000d9
:1055b00019f70000e72000001b160000232100005f
:1055c000619000005e210000176800009a21000031
:1055d0007f9f0000d6210000f03800001322000059
:1055e000d836000050220000bd9b00008d22000034
:1055f0003c6a0000cb22000011a500000923000036
:10560000104f0000482300002d6b0000872300008e
:105610007bfc0000c62300003006000007240000c9
:10562000a38b000047240000529000008824000053
:10563000e4170000ca240000292600000c25000001
:105640001fbf00004e250000f4e600009125000079
:105650000ca20000d525000000f50000192600006e
:10566000a6e400005e26000011760000a4260000db
:105670009aae0000ea260000e49300003127000003
:10568000e02b000079270000d47c0000c127000037
:10569000628d00000a280000916400005428000078
